:020000040000fa
:080000000001040000000000f3
:020000040000fa
:100008009a0100009a0100009a0100009a0100007c
:100018009a0100009a0100009a0100009a0100006c
:100028009a0100009a0100009a0100009a0100005c
:100038009a0100009a0100009a0100009a0100004c
:100048009a0100009a0100009a0100009a0100003c
:100058009a0100009a0100009a0100009a0100002c
:100068009a0100009a0100009a0100009a0100001c
:100078009a0100009a0100009a0100009a0100000c
:100088009a0100009a0100009a0100009a010000fc
:100098009a0100009a0100009a0100009a010000ec
:1000a8009a0100009a0100009a0100009a010000dc
:1000b8009a0100009a0100009a0100009a010000cc
:1000c8009a0100009a0100009a0100009a010000bc
:1000d8009a0100009a0100009a0100009a010000ac
:1000e8009a0100009a0100009a0100009a0100009c
:0800f8009a0100009a010000ca
:020000040000fa
:100108009a0100009a0100009a0100009a0100007b
:100118009a0100009a0100009a0100009a0100006b
:100128009a0100009a0100009a0100009a0100005b
:100138009a0100009a0100009a0100009a0100004b
:100148009a0100009a0100009a0100009a0100003b
:100158009a0100009a0100009a0100009a0100002b
:100168009a0100009a0100009a0100009a0100001b
:100178009a0100009a0100009a0100009a0100000b
:100188009a0100009a0100009a0100009a010000fb
:100198009a0100009a0100009a0100009a010000eb
:1001a8009a0100009a0100009a0100009a010000db
:1001b8009a0100009a0100009a0100009a010000cb
:1001c8009a0100009a0100009a0100009a010000bb
:1001d8009a0100009a0100009a0100009a010000ab
:1001e8009a0100009a0100009a0100009a0100009b
:0801f8009a0100009a010000c9
:020000040000fa
:100200000f8120000eff20000e018800000000007a
:10021000000020000000e000020032000001200089
:10022000200288000c0007006087200001002000e9
:1002300011000700000020000000e0000200320072
:1002400000000200000000002c0702000000000077
:100250000040da000000fe004440a90080002000b9
:100260000000e0000300320000002000a001880030
:100270004440a8000000060091018800800078003a
:100280000000eb0015003700e280400032a0b4000f
:100290009101ba00e280400032a0b4009102ba009d
:1002a000e280400032a0b4000002eb00472bde00e9
:1002b000f507b200602ce10004003a000059eb00a1
:1002c0008301e900fdff3e00040037006128e100e2
:1002d000010032000082eb00040007001101ba00a7
:1002e0000200e000e8ff3a00000006003159ba00c1
:1002f0008301e9000c0032002159ba008301e900b2
:10030000080032000400e00003003a00e2804000f0
:1003100032a0b400f5ff370011d9ba008301e9001b
:10032000faff3a008100e800e180400032a0b4000a
:10033000000006000040da000000fe00889fbe00ba
:100340008a9fbe003004be002005be0004044400a5
:1003500085844c0006054d0087854d000898be0039
:100360000a90be000440e10005c8e10006d0e100ab
:1003700007d8e10002003100680040001008e800e2
:100380004f05be004f04be00000006001000fa003a
:10039000889fbe008a9fbe000605be000404be0002
:1003a0003002be002003be00c4b79f00d5b79f0037
:1003b000e6b79f00f7b79f000802520089825a00f3
:1003c0000a035b008b835b0084bf9f0095bf9f0087
:1003d000a6bf9f00b7bf9f000498be000698be004e
:1003e000110020004fb29700dfb297006fb3970063
:1003f000ffb397000820e10009a8e1000ab0e1007e
:100400000bb8e100010039008000eb0010881000fb
:100410004f05be004f04be000080fa000000060039
:100420001400fa00889fbe008a9fbe008c9fbe0009
:100430003f0007000605be000404be000006eb00f6
:10044000ccb79f00bcb79f00acb79f009cb79f0084
:100450008cb79f000d0420004fb39700bfb29700e8
:10046000860343002fb29700e00f530004003d00c5
:100470003d0007000f004000b0ff070003003700f9
:10048000390007000f004000c0ff0700cfb29700ff
:1004900095bf9f00e08f5200090035002b00070038
:1004a00014002000050020006033b8000000720036
:1004b0008180720002017300838173001c000700b9
:1004c0000c06e8008d0f5600e3ff3a001fba9700b4
:1004d000e00f520005003d000802be000a03be0006
:1004e00000fe2f000f00400094ff07004faa970066
:1004f000e00f520008003a000fb497009fb4970035
:100500002fb59700bfb59700d8b79f00e9b79f00f8
:10051000fab79f008bbf9f000c0007004f06be007c
:100520004f05be004f04be000080fa000000060028
:10053000010007000000060090b79f00a1b79f00d0
:10054000b2b79f00c3b79f0000000600010007007c
:10055000000006001fb09700afb097003fb19700b2
:10056000cfb19700000006004f2bde00868373009a
:10057000a7b79f004f23de0085824200868272006b
:1005800095b79f00ffaa97004f2bde0004024200a0
:100590000602720084b79f006faa97004f23de0007
:1005a0008582420086827200f5af9f00e9ff070056
:1005b0004f18de000402420000027200e4af9f0008
:1005c000e4ff07000000400081804800020149006c
:1005d00083814900d8ff07000802be000a03be005d
:1005e00000fe2f0000000600881f78001800200081
:1005f000881f78008aff07008f87e9004f04780082
:1006000000000600801feb0085ff07008f87e900d0
:1006100000000600889fbe008a9fbe00e00f5000c9
:10062000e08f5800e00f5900e08f59000c003d00aa
:100630006044b8006055b8000000540081805c0040
:1006400002015d0083815d00180020001500070095
:1006500008003d00180007000004eb00050037000b
:100660000004eb000f00070002003d00120007002d
:1006700018002000dcff0700e00f540006003200e5
:100680006022b8006033b8000000520081805a0038
:1006900002015b0083815b004f05be004f04be007a
:1006a00000000600e00f5200e08f5a00e00f5b00f0
:1006b000e08f5b00000006006044b8006055b800a1
:1006c0000402540085825c0006035d0087835d00a0
:1006d00000000600889fbe008a9fbe008c1f780025
:1006e000e00f5000e08f5800e00f5900e08f5900f4
:1006f0000d003d006044b8006055b8000000540093
:1007000081805c0002015d0083815d001c0020008f
:100710000820e10009a8e1000ab0e1000bb8e100ff
:100720000d003d00080037000006eb00e00f52000e
:10073000e08f5a00e00f5b00e08f5b0006003d0099
:100740006044b8006055b8000402540085825c0023
:1007500006035d0087835d00aaff0700e00f5600d7
:10076000060032006022b8006033b800000052007a
:1007700081805a0002015b0083815b004f06780094
:100780004f05be004f04be0000000600889fbe005b
:100790008a9fbe008c1f78000006eb00e00f50001f
:1007a000e08f5800e00f5900e08f590007003d002e
:1007b0006044b8006055b8000000540081805c00bf
:1007c00002015d0083815d001c002000e00f5200eb
:1007d000e08f5a00e00f5b00e08f5b0007003d00f8
:1007e0006044b8006055b8000402540085825c0083
:1007f00006035d0087835d000c00a2000c0007006b
:10080000e00f5600060032006022b8006033b800e6
:100810000000520081805a0002015b0083815b006e
:100820004f0678004f05be004f04be0000000600d2
:10083000889fbe008a9fbe008c9fbe000404b80043
:100840000506b8008904460060854e000606b8001b
:100850000a054600e0854e000706b8008b054600f5
:10086000040eb800890446000a854e00e0854d005c
:10087000050eb8000a0546008b854e00060eb8002e
:100880008b0546000416b8000a0546008b854e000d
:100890000516b8008b054600041eb8008b054600ff
:1008a0000800be000a01be004f06be004f05be0094
:0808b0004f04be000000060029
:020000040000fa
:1008b8006400000064000000640000001e000000e6
:020000040000fa
:1008c8000c00fa00889fbe000f0478000f02780021
:1008d80084047800142384004222dd000402e90025
:1008e80034079800142384004322dd000402e80042
:1008f8000402e8000402d100840242000f027800da
:10090800858747000402e8000402d100040242007f
:100918004407980014002000040f78000002eb0040
:10092800140798000002eb00044088000002eb0066
:10093800144088000002eb00244088000002eb000d
:100948003440880033003700a022a800700020003f
:1009580001002000d5010700a022a9000000000026
:100968000415800061026200e00f5200fcff3200b3
:1009780004148000840278004e0390001e02900048
:100988000402420004024300050a78001e02900097
:100998000402e80014079800141480008402780008
:1009a8004e0390001e02900004024200040243001d
:1009b800050a78001e0290000402e8001407980057
:1009c80024148000840278004e0390001e029000d8
:1009d8000402420004024300050a78001e02900047
:1009e8000402e80014079800341480008402780098
:1009f8004e0390001e0290000402420004024300cd
:100a0800050a78001e0290000402e8001407980006
:100a18001e0fe800142384009e027800848f520081
:100a2800c9ff3400142384000402e9004222dd00d7
:100a3800540798000002eb002407980022003700b2
:100a4800ce0290002e02900004024200e5027a00d5
:100a58000440800004824200044088002e02900076
:100a68000402e800ce02900004024200e5027a0087
:100a78001440800004824200144088002e02900036
:100a88000482e800ce02900004024200e5027a00e7
:100a98002440800004824200244088002e029000f6
:100aa80063024200ce02900004024200e5027a008e
:100ab8003440800004824200344088002e029000b6
:100ac8006402420024079800ae0290005e02900083
:100ad800848f5200daff340005408000142384001c
:100ae800110009008402d800000278000440880040
:100af8001540800014238400110009008402d800e6
:100b080000027800144088002540800014238400e7
:100b1800110009008402d8000002780024408800ef
:100b28003540800014238400110009008402d80095
:100b38000002780034408800890778008807780028
:100b48004f04be000080fa00000006000000fa0012
:100b58005bff070045408000042384008482420034
:100b680004408000848f520002003d0014002000e1
:100b78001900370055408000042384008482420015
:100b880014408000848f520002003d0024002000a1
:100b980011003700654080000423840084824200ed
:100ba80024408000848f520002003d003400200061
:100bb80009003700754080000423840084824200c5
:100bc80034408000848f520002003d004400200021
:100bd800010037000002eb00040078000080fa00f2
:100be800000006000200fa00000f78001e027800dc
:100bf800e00f520019003a00da02a800f42284003b
:100c080004007800cf80de000101780082017800be
:100c180004512700050720006033b800d9fe0700fb
:100c28000203be000002be000400be000601be00b2
:100c3800843e2000050020006033b80068fe0700ed
:100c48000203be000002be000402be000400be0093
:100c580016010700da02a9006f0037001e027800ab
:100c6800e10f520019003a00da22a800e4228400b9
:100c780004007800cf80de0001017800820178004e
:100c880004512700050720006033b800bdfe0700a7
:100c98000203be000002be000400be000601be0042
:100ca800843e2000050020006033b8004cfe070099
:100cb8000203be000002be000402be000400be0023
:100cc800fa000700da22a900530037001e02780054
:100cd800e20f520019003a00da42a800e422840028
:100ce80004007800cf80de000101780082017800de
:100cf80004512700050720006033b800a1fe070053
:100d08000203be000002be000400be000601be00d1
:100d1800843e2000050020006033b80030fe070044
:100d28000203be000002be000402be000400be00b2
:100d3800de000700da42a900370037001e027800fb
:100d4800e30f520019003a00da62a800e422840096
:100d580004007800cf80de0001017800820178006d
:100d680004512700050720006033b80085fe0700fe
:100d78000203be000002be000400be000601be0061
:100d8800843e2000050020006033b80014fe0700f0
:100d98000203be000002be000402be000400be0042
:100da800c2000700da62a9001b0037001e027800a3
:100db800e40f520018003a00da82a800e422840006
:100dc80004007800cf80de000101780082017800fd
:100dd80004512700050720006033b80069fe0700aa
:100de8000203be000002be000400be000601be00f1
:100df800843e2000050020006033b800f8fd07009d
:100e08000203be000002be000402be000400be00d1
:100e1800a6000700da82a9000080fa000000060098
:100e28000000fa00a6fe0700044080004440880045
:100e380014408000544088002440800064408800aa
:100e480034408000744088000080fa0000000600ea
:100e58003200fa005c0007000002eb00c4168800ac
:100e68000002eb00d4168800140020004407980004
:100e7800ebff07000002eb00040f78004b0037007f
:100e88000002eb00140798001c0037002fff070032
:100e98000002780034079800030037002bff070092
:100ea80000027800340798003e029000e00f5200dc
:100eb800faff3a001e027800e00f520002003a00e2
:100ec8000000eb0047ff070020ff07000002780042
:100ed80034079800030037001cff07000002780061
:100ee800340798003e029000e00f5200faff3200eb
:100ef8001e0290000402e800140798001e029000e9
:100f08009e0f5200e1ff34001e02780004024200e6
:100f1800040247006a024200be029000050a7800f7
:100f28000051270001072000600007000002eb00c5
:100f3800240798001900370004ff07000002780012
:100f4800340798000300370000ff0700000278000c
:100f5800340798003e029000e00f5200faff3a0072
:100f68002e0290000402420004024700540290003e
:100f7800040078001bff07002e0290009e0f52000d
:100f88000300320000512700010720004700070036
:100f98002e0290000402e800240798002e02900018
:100fa8009e0f5200e4ff34001e0fe8004e0290002e
:100fb800e10f5200b2ff32000002eb00040078009b
:100fc8000080fa00000006000000fa00a1e2a90073
:100fd8000002eb0004158800041580000480a100bd
:100fe8000490a10004158800041580000450a10095
:100ff8000460a1000470a10004158800a062a80084
:10100800a042a9000002eb00141588001415800006
:1010180004d0a10004e0a10004f0a1001415880088
:10102800141580000480a1000490a0001415880005
:10103800a222a900a202a9000002eb002415880040
:10104800a4e2a9002515800004fc2f000482620098
:101058000400a000241588000002eb003415880065
:10106800341580000460a1000470a10034158800c4
:10107800a6a2a900a682a900341580000400a00039
:101088000410a0000420a1000430a1003415880039
:101098000002eb005415880004ff2f004415880057
:0c10a800a1e2a8000080fa000000060091
:020000040000fa
:1010b400f03fb1000180b10006003500ee030900e5
:1010c40000000000403fb1000180b100fbff3d0083
:1010d4001000b000203fb00002003500008009007d
:0810e4000000000000000600fe
:020000040000fa
:1010ec0000080000100000000000000000000000dc
:020000040000fa
:0200000401f009
:04000000f1bf00004c
:020000040000fa
:0200000401f009
:04000400ff7f00007a
:020000040000fa
:0200000401f009
:04000800feff0000f7
:020000040000fa
:0200000401f009
:04001400ffff0000ea
:00000001FF
